{
  "_format": "hh-sol-artifact-1",
  "contractName": "Blog",
  "sourceName": "contracts/Blog.sol",
  "abi": [
    {
      "inputs": [
        {
          "internalType": "string",
          "name": "_name",
          "type": "string"
        }
      ],
      "stateMutability": "nonpayable",
      "type": "constructor"
    },
    {
      "anonymous": false,
      "inputs": [
        {
          "indexed": false,
          "internalType": "uint256",
          "name": "id",
          "type": "uint256"
        },
        {
          "indexed": false,
          "internalType": "string",
          "name": "title",
          "type": "string"
        },
        {
          "indexed": false,
          "internalType": "string",
          "name": "content",
          "type": "string"
        }
      ],
      "name": "PostCreated",
      "type": "event"
    },
    {
      "anonymous": false,
      "inputs": [
        {
          "indexed": false,
          "internalType": "uint256",
          "name": "id",
          "type": "uint256"
        },
        {
          "indexed": false,
          "internalType": "string",
          "name": "title",
          "type": "string"
        },
        {
          "indexed": false,
          "internalType": "string",
          "name": "content",
          "type": "string"
        },
        {
          "indexed": false,
          "internalType": "bool",
          "name": "published",
          "type": "bool"
        }
      ],
      "name": "PostUpdated",
      "type": "event"
    },
    {
      "inputs": [
        {
          "internalType": "string",
          "name": "title",
          "type": "string"
        },
        {
          "internalType": "string",
          "name": "content",
          "type": "string"
        }
      ],
      "name": "createPost",
      "outputs": [],
      "stateMutability": "nonpayable",
      "type": "function"
    },
    {
      "inputs": [
        {
          "internalType": "uint256",
          "name": "_id",
          "type": "uint256"
        }
      ],
      "name": "fetchPost",
      "outputs": [
        {
          "components": [
            {
              "internalType": "uint256",
              "name": "id",
              "type": "uint256"
            },
            {
              "internalType": "address",
              "name": "author",
              "type": "address"
            },
            {
              "internalType": "string",
              "name": "title",
              "type": "string"
            },
            {
              "internalType": "string",
              "name": "content",
              "type": "string"
            },
            {
              "internalType": "bool",
              "name": "published",
              "type": "bool"
            }
          ],
          "internalType": "struct Blog.Post",
          "name": "",
          "type": "tuple"
        }
      ],
      "stateMutability": "view",
      "type": "function"
    },
    {
      "inputs": [],
      "name": "fetchPosts",
      "outputs": [
        {
          "components": [
            {
              "internalType": "uint256",
              "name": "id",
              "type": "uint256"
            },
            {
              "internalType": "address",
              "name": "author",
              "type": "address"
            },
            {
              "internalType": "string",
              "name": "title",
              "type": "string"
            },
            {
              "internalType": "string",
              "name": "content",
              "type": "string"
            },
            {
              "internalType": "bool",
              "name": "published",
              "type": "bool"
            }
          ],
          "internalType": "struct Blog.Post[]",
          "name": "",
          "type": "tuple[]"
        }
      ],
      "stateMutability": "view",
      "type": "function"
    },
    {
      "inputs": [],
      "name": "name",
      "outputs": [
        {
          "internalType": "string",
          "name": "",
          "type": "string"
        }
      ],
      "stateMutability": "view",
      "type": "function"
    },
    {
      "inputs": [],
      "name": "owner",
      "outputs": [
        {
          "internalType": "address",
          "name": "",
          "type": "address"
        }
      ],
      "stateMutability": "view",
      "type": "function"
    },
    {
      "inputs": [
        {
          "internalType": "string",
          "name": "_name",
          "type": "string"
        }
      ],
      "name": "updateName",
      "outputs": [],
      "stateMutability": "nonpayable",
      "type": "function"
    },
    {
      "inputs": [
        {
          "internalType": "uint256",
          "name": "postId",
          "type": "uint256"
        },
        {
          "internalType": "string",
          "name": "title",
          "type": "string"
        },
        {
          "internalType": "string",
          "name": "content",
          "type": "string"
        },
        {
          "internalType": "bool",
          "name": "published",
          "type": "bool"
        }
      ],
      "name": "updatePost",
      "outputs": [],
      "stateMutability": "nonpayable",
      "type": "function"
    }
  ],
  "bytecode": "0x60806040523480156200001157600080fd5b5060405162001a4738038062001a478339818101604052810190620000379190620002d5565b620000836040518060400160405280601981526020017f4465706c6f79696e6720426c6f672077697468206e616d653a0000000000000081525082620000e460201b620009d11760201c565b80600090805190602001906200009b929190620001b3565b5033600160006101000a81548173ffffffffffffffffffffffffffffffffffffffff021916908373ffffffffffffffffffffffffffffffffffffffff1602179055505062000522565b620001868282604051602401620000fd9291906200035b565b6040516020818303038152906040527f4b5c4277000000000000000000000000000000000000000000000000000000007bffffffffffffffffffffffffffffffffffffffffffffffffffffffff19166020820180517bffffffffffffffffffffffffffffffffffffffffffffffffffffffff83818316178352505050506200018a60201b60201c565b5050565b60008151905060006a636f6e736f6c652e6c6f679050602083016000808483855afa5050505050565b828054620001c19062000447565b90600052602060002090601f016020900481019282620001e5576000855562000231565b82601f106200020057805160ff191683800117855562000231565b8280016001018555821562000231579182015b828111156200023057825182559160200191906001019062000213565b5b50905062000240919062000244565b5090565b5b808211156200025f57600081600090555060010162000245565b5090565b60006200027a6200027484620003bf565b62000396565b9050828152602081018484840111156200029357600080fd5b620002a084828562000411565b509392505050565b600082601f830112620002ba57600080fd5b8151620002cc84826020860162000263565b91505092915050565b600060208284031215620002e857600080fd5b600082015167ffffffffffffffff8111156200030357600080fd5b6200031184828501620002a8565b91505092915050565b60006200032782620003f5565b62000333818562000400565b93506200034581856020860162000411565b620003508162000511565b840191505092915050565b600060408201905081810360008301526200037781856200031a565b905081810360208301526200038d81846200031a565b90509392505050565b6000620003a2620003b5565b9050620003b082826200047d565b919050565b6000604051905090565b600067ffffffffffffffff821115620003dd57620003dc620004e2565b5b620003e88262000511565b9050602081019050919050565b600081519050919050565b600082825260208201905092915050565b60005b838110156200043157808201518184015260208101905062000414565b8381111562000441576000848401525b50505050565b600060028204905060018216806200046057607f821691505b60208210811415620004775762000476620004b3565b5b50919050565b620004888262000511565b810181811067ffffffffffffffff82111715620004aa57620004a9620004e2565b5b80604052505050565b7f4e487b7100000000000000000000000000000000000000000000000000000000600052602260045260246000fd5b7f4e487b7100000000000000000000000000000000000000000000000000000000600052604160045260246000fd5b6000601f19601f8301169050919050565b61151580620005326000396000f3fe608060405234801561001057600080fd5b506004361061007d5760003560e01c806384da92a71161005b57806384da92a7146100ec5780638da5cb5b14610108578063abaddd7f14610126578063cd349fe9146101445761007d565b806306fdde0314610082578063392338f5146100a057806375e1e07e146100bc575b600080fd5b61008a610160565b60405161009791906110b8565b60405180910390f35b6100ba60048036038101906100b59190610d04565b6101ee565b005b6100d660048036038101906100d19190610d70565b6102f9565b6040516100e39190611111565b60405180910390f35b61010660048036038101906101019190610cc3565b6104c5565b005b6101106104df565b60405161011d919061107b565b60405180910390f35b61012e610505565b60405161013b9190611096565b60405180910390f35b61015e60048036038101906101599190610d99565b6107d3565b005b6000805461016d90611367565b80601f016020809104026020016040519081016040528092919081815260200182805461019990611367565b80156101e65780601f106101bb576101008083540402835291602001916101e6565b820191906000526020600020905b8154815290600101906020018083116101c957829003601f168201915b505050505081565b6101f86002610a6d565b60006102046002610a83565b90506000600360008381526020019081526020016000209050818160000181905550338160010160006101000a81548173ffffffffffffffffffffffffffffffffffffffff021916908373ffffffffffffffffffffffffffffffffffffffff16021790555083816002019080519060200190610281929190610aba565b5060018160040160006101000a81548160ff021916908315150217905550828160030190805190602001906102b7929190610aba565b507fe6851f0b99a9d86e5d68a97f65218980851216ce297f789c6b6b7e82ca1d90c88285856040516102eb93929190611133565b60405180910390a150505050565b610301610b40565b600360008381526020019081526020016000206040518060a0016040529081600082015481526020016001820160009054906101000a900473ffffffffffffffffffffffffffffffffffffffff1673ffffffffffffffffffffffffffffffffffffffff1673ffffffffffffffffffffffffffffffffffffffff16815260200160028201805461038f90611367565b80601f01602080910402602001604051908101604052809291908181526020018280546103bb90611367565b80156104085780601f106103dd57610100808354040283529160200191610408565b820191906000526020600020905b8154815290600101906020018083116103eb57829003601f168201915b5050505050815260200160038201805461042190611367565b80601f016020809104026020016040519081016040528092919081815260200182805461044d90611367565b801561049a5780601f1061046f5761010080835404028352916020019161049a565b820191906000526020600020905b81548152906001019060200180831161047d57829003601f168201915b505050505081526020016004820160009054906101000a900460ff1615151515815250509050919050565b80600090805190602001906104db929190610aba565b5050565b600160009054906101000a900473ffffffffffffffffffffffffffffffffffffffff1681565b606060006105136002610a83565b905060008167ffffffffffffffff811115610557577f4e487b7100000000000000000000000000000000000000000000000000000000600052604160045260246000fd5b60405190808252806020026020018201604052801561059057816020015b61057d610b40565b8152602001906001900390816105755790505b50905060005b828110156107ca5760006001826105ad9190611287565b90506000600360008381526020019081526020016000209050806040518060a0016040529081600082015481526020016001820160009054906101000a900473ffffffffffffffffffffffffffffffffffffffff1673ffffffffffffffffffffffffffffffffffffffff1673ffffffffffffffffffffffffffffffffffffffff16815260200160028201805461064290611367565b80601f016020809104026020016040519081016040528092919081815260200182805461066e90611367565b80156106bb5780601f10610690576101008083540402835291602001916106bb565b820191906000526020600020905b81548152906001019060200180831161069e57829003601f168201915b505050505081526020016003820180546106d490611367565b80601f016020809104026020016040519081016040528092919081815260200182805461070090611367565b801561074d5780601f106107225761010080835404028352916020019161074d565b820191906000526020600020905b81548152906001019060200180831161073057829003601f168201915b505050505081526020016004820160009054906101000a900460ff1615151515815250508484815181106107aa577f4e487b7100000000000000000000000000000000000000000000000000000000600052603260045260246000fd5b6020026020010181905250505080806107c2906113ca565b915050610596565b50809250505090565b60006003600086815260200190815260200160002090508060010160009054906101000a900473ffffffffffffffffffffffffffffffffffffffff1673ffffffffffffffffffffffffffffffffffffffff163373ffffffffffffffffffffffffffffffffffffffff161461084657600080fd5b8381600201908051906020019061085e929190610aba565b50818160040160006101000a81548160ff02191690831515021790555082816003019080519060200190610893929190610aba565b508060036000878152602001908152602001600020600082015481600001556001820160009054906101000a900473ffffffffffffffffffffffffffffffffffffffff168160010160006101000a81548173ffffffffffffffffffffffffffffffffffffffff021916908373ffffffffffffffffffffffffffffffffffffffff160217905550600282018160020190805461092d90611367565b610938929190610b87565b50600382018160030190805461094d90611367565b610958929190610b87565b506004820160009054906101000a900460ff168160040160006101000a81548160ff0219169083151502179055509050507f9f8eb93fc073102bbd3072664634ab200707a4f11d94aace9cc8d0e4d019eff581600001548585856040516109c29493929190611178565b60405180910390a15050505050565b610a6982826040516024016109e79291906110da565b6040516020818303038152906040527f4b5c4277000000000000000000000000000000000000000000000000000000007bffffffffffffffffffffffffffffffffffffffffffffffffffffffff19166020820180517bffffffffffffffffffffffffffffffffffffffffffffffffffffffff8381831617835250505050610a91565b5050565b6001816000016000828254019250508190555050565b600081600001549050919050565b60008151905060006a636f6e736f6c652e6c6f679050602083016000808483855afa5050505050565b828054610ac690611367565b90600052602060002090601f016020900481019282610ae85760008555610b2f565b82601f10610b0157805160ff1916838001178555610b2f565b82800160010185558215610b2f579182015b82811115610b2e578251825591602001919060010190610b13565b5b509050610b3c9190610c14565b5090565b6040518060a0016040528060008152602001600073ffffffffffffffffffffffffffffffffffffffff16815260200160608152602001606081526020016000151581525090565b828054610b9390611367565b90600052602060002090601f016020900481019282610bb55760008555610c03565b82601f10610bc65780548555610c03565b82800160010185558215610c0357600052602060002091601f016020900482015b82811115610c02578254825591600101919060010190610be7565b5b509050610c109190610c14565b5090565b5b80821115610c2d576000816000905550600101610c15565b5090565b6000610c44610c3f846111f0565b6111cb565b905082815260208101848484011115610c5c57600080fd5b610c67848285611325565b509392505050565b600081359050610c7e816114b1565b92915050565b600082601f830112610c9557600080fd5b8135610ca5848260208601610c31565b91505092915050565b600081359050610cbd816114c8565b92915050565b600060208284031215610cd557600080fd5b600082013567ffffffffffffffff811115610cef57600080fd5b610cfb84828501610c84565b91505092915050565b60008060408385031215610d1757600080fd5b600083013567ffffffffffffffff811115610d3157600080fd5b610d3d85828601610c84565b925050602083013567ffffffffffffffff811115610d5a57600080fd5b610d6685828601610c84565b9150509250929050565b600060208284031215610d8257600080fd5b6000610d9084828501610cae565b91505092915050565b60008060008060808587031215610daf57600080fd5b6000610dbd87828801610cae565b945050602085013567ffffffffffffffff811115610dda57600080fd5b610de687828801610c84565b935050604085013567ffffffffffffffff811115610e0357600080fd5b610e0f87828801610c84565b9250506060610e2087828801610c6f565b91505092959194509250565b6000610e388383610f63565b905092915050565b610e49816112dd565b82525050565b610e58816112dd565b82525050565b6000610e6982611231565b610e738185611254565b935083602082028501610e8585611221565b8060005b85811015610ec15784840389528151610ea28582610e2c565b9450610ead83611247565b925060208a01995050600181019050610e89565b50829750879550505050505092915050565b610edc816112ef565b82525050565b610eeb816112ef565b82525050565b6000610efc8261123c565b610f068185611265565b9350610f16818560208601611334565b610f1f816114a0565b840191505092915050565b6000610f358261123c565b610f3f8185611276565b9350610f4f818560208601611334565b610f58816114a0565b840191505092915050565b600060a083016000830151610f7b600086018261105d565b506020830151610f8e6020860182610e40565b5060408301518482036040860152610fa68282610ef1565b91505060608301518482036060860152610fc08282610ef1565b9150506080830151610fd56080860182610ed3565b508091505092915050565b600060a083016000830151610ff8600086018261105d565b50602083015161100b6020860182610e40565b50604083015184820360408601526110238282610ef1565b9150506060830151848203606086015261103d8282610ef1565b91505060808301516110526080860182610ed3565b508091505092915050565b6110668161131b565b82525050565b6110758161131b565b82525050565b60006020820190506110906000830184610e4f565b92915050565b600060208201905081810360008301526110b08184610e5e565b905092915050565b600060208201905081810360008301526110d28184610f2a565b905092915050565b600060408201905081810360008301526110f48185610f2a565b905081810360208301526111088184610f2a565b90509392505050565b6000602082019050818103600083015261112b8184610fe0565b905092915050565b6000606082019050611148600083018661106c565b818103602083015261115a8185610f2a565b9050818103604083015261116e8184610f2a565b9050949350505050565b600060808201905061118d600083018761106c565b818103602083015261119f8186610f2a565b905081810360408301526111b38185610f2a565b90506111c26060830184610ee2565b95945050505050565b60006111d56111e6565b90506111e18282611399565b919050565b6000604051905090565b600067ffffffffffffffff82111561120b5761120a611471565b5b611214826114a0565b9050602081019050919050565b6000819050602082019050919050565b600081519050919050565b600081519050919050565b6000602082019050919050565b600082825260208201905092915050565b600082825260208201905092915050565b600082825260208201905092915050565b60006112928261131b565b915061129d8361131b565b9250827fffffffffffffffffffffffffffffffffffffffffffffffffffffffffffffffff038211156112d2576112d1611413565b5b828201905092915050565b60006112e8826112fb565b9050919050565b60008115159050919050565b600073ffffffffffffffffffffffffffffffffffffffff82169050919050565b6000819050919050565b82818337600083830152505050565b60005b83811015611352578082015181840152602081019050611337565b83811115611361576000848401525b50505050565b6000600282049050600182168061137f57607f821691505b6020821081141561139357611392611442565b5b50919050565b6113a2826114a0565b810181811067ffffffffffffffff821117156113c1576113c0611471565b5b80604052505050565b60006113d58261131b565b91507fffffffffffffffffffffffffffffffffffffffffffffffffffffffffffffffff82141561140857611407611413565b5b600182019050919050565b7f4e487b7100000000000000000000000000000000000000000000000000000000600052601160045260246000fd5b7f4e487b7100000000000000000000000000000000000000000000000000000000600052602260045260246000fd5b7f4e487b7100000000000000000000000000000000000000000000000000000000600052604160045260246000fd5b6000601f19601f8301169050919050565b6114ba816112ef565b81146114c557600080fd5b50565b6114d18161131b565b81146114dc57600080fd5b5056fea2646970667358221220e2e70538a446794e98f4ab7ebe78bbc8f58d191f03266a28be7661ab160dd84864736f6c63430008040033",
  "linkReferences": {},
  "deployedLinkReferences": {}
}